:020000020000FC
:200000000874004089140840683A0800000000000000000000000000000000000000000095
:20001000ED04DEFF0015DFC00215D8400315D8800415D8C00515D9000615D9400715D98062
:200020000815D9C0307A000B0915DA000A15DA400B15DA800C15DAC00D15DB000E15DB40B4
:200030000F15DB801015DBC01115D940FF04EBFF1215DBC0313A0009004C288003261000E2
:20004000022620000FC00210070600001215DF40FF17E8BFFF04E93F1C400210021E10009E
:20005000FF04EBFF1215DBC01117D9401217DF400017DFC0707A28010217D8400317D880EC
:200060000417D8C00517D9000617D9400717D9800817D9C00917DA000A17DA400B17DA80C2
:200070000C17DAC00D17DB000E17DB400F17DB801017DBC01304DEC0083AEF80F904DEFFF1
:200080000615DFC00515DF000504DF00883A0001313A0005FC15E0BFFC17E0BFFF15E0BF7D
:20009000FD15E03F00440080FE15E0BFFF17E0FFFE17E0BF703A188411261000FD17E0BFC0
:2000A00090FA100608740080883A18858C1710D5FD17E0BF90FA100808740080883A208505
:2000B0008D171095883A1009E83A183E883A0001313A0005FB15E0BFFB17E0BF07060000F4
:2000C000FE17E0BF883A1085FE15E0BFFD17E0BF00441080FD15E0BFE406003FFF15E0BF4F
:2000D000FF17E0BFDE1E103F883A0001883A0001883AE0370117DFC00017DF000204DEC060
:2000E000283AF800FB04DEFF0415DFC00315DF000304DF00FD15E13FFFC400BFFF15E0BFCE
:2000F000FE15E03FDE17D0A507261000DE17D0A5FF17E0FFFE17E1BFFD17E17F883A1809AC
:20010000E83A103E02060000A03A003D883A0005883AE0370117DFC00017DF000204DEC05F
:20011000283AF80008B406C00014DEC008740680AC14D6AF0874008084141095087400C085
:20012000CC1418D5032610C00015100001041080FD3610FF2E80021036C00210FF06003FF1
:20013000FF04DEFF0015DF00883AD839883A0005883AE0370017DF000104DEC0283AF80075
:20014000FC04DEFF0315DF000304DF00FF15E13FFE15E17FFD15E1BFFE17E0FFFF17E0BFE3
:200150000C26188008060000FF17E0FF01041880FF15E0BFFE17E0BF01041100FE15E13F75
:20016000001718C0001510C0FE17E0FFFD17E0BFF51E18BF883A0001883AE0370017DF0088
:200170000104DEC0283AF800FE04DEFF0115DFC00015DF00883AD83908740180B704318F9F
:2001800008740140EA04294908740100B704210F28000210087401808904318008740140A8
:200190000804294008740100080421002800021008740180EA04318908740140CE04294950
:2001A00008740100CE042109280002105580021175000211883A0001883AE0370117DFC0C9
:2001B0000017DF000204DEC0283AF800FD04DEFF0215DFC00115DF000104DF00883A000903
:2001C00041C00210883A00014580021008740180CE04318908740140CE042949087401006B
:2001D000CE042109ADC002116880021108740100BB0421052F800212D817D0A5D917D0E56A
:2001E000DA17D125883A200D883A180B883A100926000210FF15E0BF0044010047C002111F
:2001F000FF17E13F30C00212FD04DEFF0215DFC00115DF000104DF00FF15E13F0204D160DD
:20020000FF17E13F5E000211883AE0370117DFC00017DF000204DEC0283AF800FD04DEFFD5
:200210000215DFC00115DF000104DF00FF15E13FFEC0021100440080703A1001883A0001F8
:20022000883A0001883AE0370117DFC00017DF000204DEC0283AF800FD04DEFF0215DFC0E3
:200230000115DF000104DF00C40401C901440180883A000B08B40100080421042880021107
:2002400001C40180883A000B08740100F40421098FC0021008740100EA0421093E80021026
:20025000087400800C17108E00171080883A1007087400800D1510CE087400800C17108E98
:200260000104108000171080883A1007087400800E1510CE087400800C17108E0204108019
:2002700000171080FFCC10FF08740080111510CE087400800C17108E0204108000171080F3
:20028000D43A100608740080121510CE087400800C17108E0304108000171080D07A1005DF
:20029000004C10C0087400800F1510CE087400800C17108E0304108000171080D13A100519
:2002A00003CC10C008740080101510CE087400800C17108E0304108000171080D43A100582
:2002B000FFC5E0BF087400800C17108E0304108000171080D63A1004FF85E0BF087400808D
:2002C0001017108E00581080031E1000087400801315100E0B060000087400801017108E2C
:2002D00000981080041E1000004400C008740080131510CE03060000008400C00874008065
:2002E000131510CEFFC3E0BF080400C0C83A1885FFC400FFD83A188608740080141510CEB7
:2002F000FFC3E0FF087400801317108E883A188708740080151510CEFF83E0BF080400C037
:20030000C83A1885FFC400FFD83A188608740080161510CE087401000204210E3E80021045
:20031000087400802117108E0017108003CC10C008740080221510CE087400802117108ED2
:2003200000171080D13A1005004C10C008740080231510CE087400802117108E001710804F
:20033000D17A1005004C10C008740080241510CE087400802117108E00171080D43A100582
:2003400003CC10C008740080251510CE087400802117108E00171080D53A1005004C10C031
:2003500008740080261510CE087400802117108E00171080D57A1005004C10C00874008083
:20036000271510CE087401001704210E3E800210087400803217108E0017108003CC10C0A3
:2003700008740080331510CE087400803217108E00171080D13A1005004C10C00874008089
:20038000341510CE087400803217108E00171080D17A1005004C10C008740080351510CE0C
:20039000087400803217108E00171080D43A100503CC10C008740080361510CE08740080E0
:2003A0003217108E00171080D53A1005004C10C008740080371510CE087400803217108E66
:2003B00000171080D57A1005004C10C008740080381510CE087401002804210E3E80021037
:2003C000883A0001883AE0370117DFC00017DF000204DEC0283AF800FA04DEFF0515DFC042
:2003D0000415DF000404DF00FE15E13FFD15E17FFC15E1BFFE17E0BF00171080FF15E0BFCA
:2003E000FF17E0BF0A0410C0FE17E0BF02171080883A100FFC17E1BFFD17E17F883A180922
:2003F000DC400210883AE0370117DFC00017DF000204DEC0283AF800FA04DEFF0515DFC0A7
:200400000415DF000404DF00FE15E13FFD15E17FFC15E1BFFE17E0BF00171080FF15E0BF99
:20041000FF17E0BF0A0410C0FE17E0BF02171080883A100FFC17E1BFFD17E17F883A1809F1
:20042000FE400210883AE0370117DFC00017DF000204DEC0283AF800FC04DEFF0315DFC054
:200430000215DF000204DF00FE15E13FFE17E0BF00171080FF15E0BFFF17E0BF0A0410C0FD
:20044000FE17E0BF02171080883A100B883A1809C6800210883AE0370117DFC00017DF00A1
:200450000204DEC0283AF800FA04DEFF0515DFC00415DF000404DF00FE15E13FFD15E17F76
:20046000FC15E1BFFE17E0BF00171080FF15E0BFFF17E0BF0A041080FC17E1BFFD17E17F43
:20047000883A1009CD000210883AE0370117DFC00017DF000204DEC0283AF800FA04DEFF53
:200480000515DFC00415DF000404DF00FF15E13FFE15E17FFD15E1BFFF17E0BF004400C0B2
:20049000081510C0FF17E0BF0017108001041080883A1007FF17E0BF081710800035188064
:2004A000FE17E0BFFD17E0FF0015D800FF17E1FF087401806F043182883A180B883A1009CF
:2004B00077000211FF17E0BF09151000FF17E0BF02041080DC17D0E5FF17E1FF08740180D9
:2004C000F2043182883A180B883A100930C00211040E1000FF17E0FF003400A0FFC410BF33
:2004D00001151880883A0001883AE0370117DFC00017DF000204DEC0283AF800F804DEFF3E
:2004E0000715DF000704DF00F915E13FF917E0BFFD15E0BFFD17E0BF00171080FC15E0BF7F
:2004F000FC17E0BF0104108000371080FB15E0BFFB17E0BFC00C10806D261000FB17E0BFCE
:20050000400C10803526100000740080FF15E0BFFD17E0BF0A17108000441080FFCC108159
:20051000FA15E0BFFD17E0BF0B171080FA17E0FF15261880FC17E0BF00371080FF15E0BFC9
:20052000FF17E0BF000C10A011261000FD17E0BF0A171080FF17E0FF883A1809FD17E0FFD4
:20053000883A18850E051100FD17E0BF0A17108000441080FFCC10C1FD17E0BF0A1510C0B2
:20054000883A0001E206003F883A000101060000883A0001FF17E0BFFFEC10BF0F26100070
:20055000FD17E0BF081710C0FF8400BF703A1886FD17E0BF081510C0FC17E0BF0104108078
:20056000883A1007FD17E0BF0817108000351880FC17E0BF0104108000371080FB17E0BFB4
:20057000800C1080BE26103FFB17E0BFD43A1004FE15E0BF14060000FC17E0BFFD17E0FFD8
:200580000D1718C0FD17E13F883A20C70E0318C23FCC18C0201C18C0E00418FF003510C0A0
:20059000FD17E0BF0D17108000441080FFCC10C1FD17E0BF0D1510C0883A0001FE17E0BF58
:2005A000FFC410BFFE15E0BFFE17E0BF05261000FD17E0BF0D1710C0FD17E0BF0C171080FB
:2005B000E51E18BFFE17E0BF9D26103FFD17E0BF081710C0FF4400BF703A1886FD17E0BFEC
:2005C000081510C0FD17E0BF0017108001041080883A1007FD17E0BF081710800035188037
:2005D000FC17E0BF01041080003710808C06003F883A0001883A0001883AE0370017DF00D7
:2005E0000104DEC0283AF800FC04DEFF0315DF000304DF00FD15E13FFD17E0BFFF15E0BFAC
:2005F000FF17E0BF001710800104108000371080FE15E0BFFE17E0BF000C10810B261000EF
:20060000FF17E0BF0017108001041080883A1007FF17E0BF0817108000141081003518803A
:20061000FF17E0BF091510000A060000FF17E0BF091710C0003400A0FF0410BF053610C081
:20062000FF17E0BF09171080004410C0FF17E0BF091510C0DC17D0A5883AE0370017DF0067
:200630000104DEC0283AF800FD04DEFF0215DF000204DF00FF15E13FFE15E17F0506000042
:20064000FE17E0BF000C109002261000FD4400BF0B060000FF17E0BF0D1710C0FF17E0BF93
:200650000C17108005261880FF17E0BF091710C0FF17E0BF01171080F13618BF883A00054D
:20066000883AE0370017DF000104DEC0283AF800FA04DEFF0515DF000504DF00FD15E13FC0
:20067000FC15E17FFB15E1BFF9C400BFFF15E0BFFC17E0BF8060109A041E1000FC17E0BFFA
:2006800080A0109A181E100029060000FD17E0BF011710C0003400A0FFC410BF212618803B
:20069000FB17E0BF00171080FE15E0BFFE17E0BF00901080061E1000FE17E0FF003400A070
:2006A000FFC410BF02261880FE17E0BF02060000003400A0FF8410BFFD17E0FF0115188065
:2006B000FF15E03F0F060000FD17E0BF011710C0003400A0FFC410BF0C261880FD17E0BF64
:2006C000091710C0FD17E0BF01171080803A18853FCC10C0FB17E0BF001510C0FF15E03FD4
:2006D00002060000883A000101060000883A0001FF17E0BF883AE0370017DF000104DEC04E
:2006E000283AF800F304DEFF0C15DFC00B15DF000B04DF00F815E13FF715E17FF615E1BFDB
:2006F000F515E1FFF717E0BFFF15E0BF47060000F817E0BF0A171080FD15E0BFF817E0BF95
:200700000B171080FC15E0BFFD17E0FFFC17E0BF05361880FD17E0FFFC17E0BFC83A1885BB
:20071000FE15E0BF04060000000400C2FC17E0BFC83A1885FE15E0BFFE17E0BF1E2610003C
:20072000F617E0FFFE17E0BF022E1880F617E0BFFE15E0BFF817E0BF0E0410C0FC17E0BFB1
:20073000883A1885FE17E1BF883A100BFF17E13F3B800212FF17E0FFFE17E0BF883A1885AB
:20074000FF15E0BFF617E0FFFE17E0BFC83A1885F615E0BFFC17E0FFFE17E0BF883A1885F8
:20075000FFCC10C1F817E0BF0B1510C0F617E0BFCF1600BF01060000883A0001FF17E0FF40
:20076000F717E0BF141E1880F517E0BF000C1090131E1000883A0001F817E0BF0A17108048
:20077000FD17E0FF051E1880F817E0BF091710C0F817E0BF01171080F73618BFF817E0BF15
:200780000A171080FD17E0FF07261880F617E0BFB71600BF05060000883A000103060000E1
:20079000883A000101060000883A0001FF17E0FFF717E0BF19261880303A0005F915E0BF27
:2007A000F917E0FFFF8400BF703A1884703A1001F917E0BFFB15E0BFF817E0BF081710804C
:2007B000005410C0F817E0BF081510C0F817E0BF0017108001041080883A1007F817E0BFF9
:2007C0000817108000351880FB17E0BFFA15E0BFFA17E0BF703A1001883A0001FF17E0FF1B
:2007D000F717E0BF04261880FF17E0FFF717E0BFC83A188506060000F517E0BF000C1090F6
:2007E00002261000FD4400BF01060000FEC400BF883AE0370117DFC00017DF000204DEC00F
:2007F000283AF800F304DEFF0C15DFC00B15DF000B04DF00F815E13FF715E17FF615E1BFCA
:20080000F515E1FFFF15E03FF717E0BFFD15E0BF37060000F817E0BF0C171080FC15E0BF0F
:20081000F817E0BF0D171080FF15E0BFFC17E0FFFF17E0BF062E1880FF17E0FFFC17E0BF99
:20082000C83A1885FFC410BFFE15E0BF0B060000FF17E0BF05261000000400C2FC17E0BF5C
:20083000C83A1885FE15E0BF04060000FFC400C1FC17E0BFC83A1885FE15E0BFFE17E0BF12
:200840001E261000F617E0FFFE17E0BF022E1880F617E0BFFE15E0BFF817E0BF0E0410C2EC
:20085000FC17E0BF883A1885FE17E1BFF717E17F883A10093B800212F717E0FFFE17E0BF09
:20086000883A1885F715E0BFF617E0FFFE17E0BFC83A1885F615E0BFFC17E0FFFE17E0BFDF
:20087000883A1885FFCC10C1F817E0BF0C1510C0F617E0BFC71600BF01060000883A0001BC
:20088000303A0005F915E0BFF917E0FFFF8400BF703A1884703A1001F917E0BFFB15E0BFAC
:20089000F817E0BF08171080009410C0F817E0BF081510C0F817E0BF001710800104108002
:2008A000883A1007F817E0BF0817108000351880FB17E0BFFA15E0BFFA17E0BF703A10016B
:2008B000883A0001F617E0BF100E0080F517E0BF000C1090101E1000883A0001F817E0BF15
:2008C0000D171080FF17E0FF051E1880F817E0BF091710C0F817E0BF01171080F73618BFBC
:2008D000F817E0BF09171080051E1000F617E0BFCF1600BF03060000883A00010106000054
:2008E000883A0001F717E0FFFD17E0BF04261880F717E0FFFD17E0BFC83A18850606000088
:2008F000F517E0BF000C109002261000FD4400BF01060000FEC400BF883AE0370117DFC041
:200900000017DF000204DEC0283AF800FA04DEFF0515DFC00415DF000404DF00FC15E13F3F
:20091000883A0007FC17E0BF003510C0FC17E0BF0104108000371080303A0005FD15E0BF19
:20092000FD17E0FFFF8400BF703A1884703A1001FD17E0BFFF15E0BFEE400211FF17E0BF25
:20093000FE15E0BFFE17E0BF703A1001883A0001883A0001883AE0370117DFC00017DF007A
:200940000204DEC0283AF800F804DEFF0715DFC00615DF000604DF00FE15E13FFD15E17F7D
:20095000FC15E1BFFB15E1FFFB17E0BFFF15E0BFDC17D0A5031E1000FF17E0BFDC15D0A5CE
:2009600001060000883A0001FE17E0BF0104108001C400C0003510C00015D800FE17E1FFF8
:200970000874018083043184FC17E17FFD17E13F77000211883A0001883AE0370117DFC0AA
:200980000017DF000204DEC0283AF800F504DEFF0A15DF000A04DF00F915E13FF815E17F07
:20099000F715E1BFF615E1FFFF15E03FDC17D0A53E261000F917E0BF3A261000F917E0BFD3
:2009A000F717E0FF031510C0F917E0BFF617E0FF051510C0303A0005FD15E0BFFD17E0FFCA
:2009B000FF8400BF703A1884703A1001FD17E0BFFE15E0BFDD17D0A5FF15E0BFF817E0FF75
:2009C000FF17E0BF883A1885004410C0F917E0BF021510C0F917E0BF021710C0FF17E0BF0C
:2009D000042E1880F917E0BF004400C0040510C002060000F917E0BF04051000F917E0BF32
:2009E0000704D0E0FB15E0FFFA15E0BFFA17E0BFFB17E0FF011510C0FB17E0BF001710C080
:2009F000FA17E0BF001510C0FB17E0BF00171080FA17E0FF011510C0FB17E0BFFA17E0FF83
:200A0000001510C0883A0001FE17E0BFFC15E0BFFC17E0BF703A1001883A0001883A0005D3
:200A100003060000FA8400BF01060000DE8400BF883AE0370017DF000104DEC0283AF8008C
:200A2000FE04DEFF0115DFC00015DF00883AD8390517D0A0032610000517D0A0E83A103E9A
:200A300001060000DF04D0A5883AE0370117DFC00017DF000204DEC0283AF800FB04DEFFE7
:200A40000415DFC00315DF000304DF00FD15E13FFD17E0BF09161000FD17E0FF883A18051B
:200A5000883A1085883A10C590BA1004087400C0430418CE883A10C501060000883A00056C
:200A6000FF15E0BFFF17E0BF19261000FF17E0BF001710800417108006261000FF17E0BFC7
:200A70000017108004171080FF17E13FE83A103E01060000883A0005FE15E0BFFD17E13FBA
:200A8000DD000211FE17E0BF070E100044000211883A1007FE17E0BFC83A00850015188075
:200A9000FFC400BF07060000883A00050506000044000211883A1007144400800015188030
:200AA000FFC400BF883AE0370117DFC00017DF000204DEC0283AF800FF04DEFF0015DF005C
:200AB000883AD839883A0001883AE0370017DF000104DEC0283AF800FC04DEFF0315DF00F0
:200AC0000304DF00FF15E13FFE15E17FFD15E1BFFD17E0BF883AE0370017DF000104DEC0B2
:200AD000283AF800FE04DEFF0115DFC00015DF00883AD8390517D0A0032610000517D0A000
:200AE000E83A103E01060000DF04D0A5883AE0370117DFC00017DF000204DEC0283AF800A3
:200AF000FA04DEFF0515DFC00415DF000404DF00FD15E13FFC15E17FFD17E0BF03261000E4
:200B0000FD17E0BF02171080061E10005A400211883A10070584008000151880FA8400BFCC
:200B100014060000FD17E0BFFC17E0FFFF15E0FFFE15E0BFFE17E0BFFF17E0FF011510C0D2
:200B2000FF17E0BF001710C0FE17E0BF001510C0FF17E0BF00171080FE17E0FF011510C04A
:200B3000FF17E0BFFE17E0FF001510C0883A0001883A0005883AE0370117DFC00017DF0007
:200B40000204DEC0283AF800FD04DEFF0215DFC00115DF000104DF0008740080CD041089C4
:200B5000FF15E0BF06060000FF17E0BF00171080E83A103EFF17E0BFFF0410BFFF15E0BFC0
:200B6000FF17E0FF08740080CE041089F62E18BF883A0001883A0001883AE0370117DFC008
:200B70000017DF000204DEC0283AF800FD04DEFF0215DFC00115DF000104DF000874008008
:200B8000CD041089FF15E0BF06060000FF17E0BF00171080E83A103EFF17E0BFFF0410BFD9
:200B9000FF15E0BFFF17E0FF08740080CE041089F62E18BF883A0001883A0001883AE037DC
:200BA0000117DFC00017DF000204DEC0283AF800FF04DEFF0015DF00883AD839883A000120
:200BB000883AE0370017DF000104DEC0283AF800F904DEFF0615DFC00515DF000504DF00E4
:200BC000FF15E13FFE15E17FFD15E1BFFC15E1FF0217E0800015D880FC17E1FFFD17E1BF3E
:200BD000FE17E17FFF17E13F92000211883AE0370117DFC00017DF000204DEC0283AF80031
:200BE000F904DEFF0615DF000604DF00FB15E13FFA15E17FFA17E0BFFF15E0BF303A0005C7
:200BF000FE15E0BFFE17E0FFFF8400BF703A1884703A1001FE17E0BFFD15E0BF004400C093
:200C0000FF17E0BF983A1884883A1007DB17D0A5B03A1884DB15D0A5DB17D0A570FA1001A4
:200C1000FD17E0BFFC15E0BFFC17E0BF703A1001883A0001883A0005883AE0370017DF009B
:200C20000104DEC0283AF800F904DEFF0615DF000604DF00FB15E13FFA15E17FFA17E0BFAB
:200C3000FF15E0BF303A0005FE15E0BFFE17E0FFFF8400BF703A1884703A1001FE17E0BFE5
:200C4000FD15E0BF004400C0FF17E0BF983A1884303A0084883A1007DB17D0A5703A188448
:200C5000DB15D0A5DB17D0A570FA1001FD17E0BFFC15E0BFFC17E0BF703A1001883A0001AA
:200C6000883A0005883AE0370017DF000104DEC0283AF800FC04DEFF0315DF000304DF0027
:200C7000FE15E13FFD15E17F30FA0005FF15E0BF004400C0FD17E0BF983A1884883A1007DF
:200C8000FF17E0BF703A1884C03A10043FCC1080883AE0370017DF000104DEC0283AF800E4
:200C9000F504DEFF0A15DFC00915DF000904DF00FA15E13FF915E17FF815E1BFF715E1FF91
:200CA000FA8400BFFF15E0BFF917E0BFFE15E0BFFE17E0BF08081080251E1000303A0005CD
:200CB000FC15E0BFFC17E0FFFF8400BF703A1884703A1001FC17E0BFFD15E0BFFE17E0BF28
:200CC00090FA1008F817E0FF08740080883A20858C1510D5FE17E0BF90FA1008F717E0FF58
:200CD00008740080883A20858D1510D5F817E0BF05261000FE17E0BF883A100BFA17E13F6F
:200CE0007C00021104060000FE17E0BF883A100BFA17E13F84800211FF15E0BFFD17E0BF1C
:200CF000FB15E0BFFB17E0BF703A1001883A0001FF17E0BF883AE0370117DFC00017DF00CB
:200D00000204DEC0283AF800F904DEFF0615DFC00515DF000504DF00FE15E13FFD15E17FBB
:200D1000FC15E1BFFB15E1FFFB17E1BFFC17E17FFD17E13FC7000211FF15E0BFFF17E0BF87
:200D200020161000FF17E0FF883A1805883A1085883A10C590BA1004087400C0883A10C778
:200D3000431718CEFE17E0BF001510C0FF17E0FF883A1805883A1085883A10C590BA1004AA
:200D4000087400C0883A10C7441718CEFE17E0BF011510C0FF17E0FF883A1805883A1085B8
:200D5000883A10C590BA1004087400C0883A10C7451718CEFE17E0BF021510C0FF17E13FA6
:200D6000DD000211883A0001883AE0370117DFC00017DF000204DEC0283AF800FB04DEFF60
:200D70000415DFC00315DF000304DF00FF15E13FFE15E17FFD15E1BF7FC401C000440180AC
:200D8000FF17E17F087401004604210EA08002117FC401C0883A000DFE17E17F08740100EF
:200D90004304210EA08002117FC401C000440180FD17E17F087401004904210EA080021131
:200DA000883A0001883AE0370117DFC00017DF000204DEC0283AF800FE04DEFF0115DFC058
:200DB0000015DF00883AD8390517D0A0032610000517D0A0E83A103E01060000DF04D0A53C
:200DC000883AE0370117DFC00017DF000204DEC0283AF800FD04DEFF0215DF000204DF00D6
:200DD000FE15E13FFE17E0BF02171080003410D0FE17E0BF021510C0FF15E03F2306000068
:200DE000FF17E0FF883A1805883A1085883A10C590BA1004087400C0883A10C7431718CEBE
:200DF000FE17E0BF00171080151E1880FF17E0FF883A1805883A1085883A10C590BA10049D
:200E0000087400C0883A10C74517188E0C0E1000FF17E0FF883A1805883A1085883A10C50F
:200E100090BA1004087400C0430418CE883A10C5FE17E0FF02261880FCC400BF0806000023
:200E2000FF17E0BF00441080FF15E0BF0417D0A0883A1007FF17E0BFD92E18BF883A0005B8
:200E3000883AE0370017DF000104DEC0283AF800F604DEFF0915DFC00815DF000804DF005B
:200E4000FA15E13FF915E17FF815E1BFFFC400BFFE15E0BFFB4400BFFD15E0BFFC15E03F35
:200E50000204D160FA17E13F01000212FF15E0BFFF17E0BF051E1000FA17E13F0A0002121B
:200E6000FF15E0BF00440080FC15E0BFFF17E0BF2C261000FF17E13F1A800212FE15E0BF9E
:200E7000FE17E0BF030E1000FE17E0BFFD15E0BF26060000FE17E0FF883A1805883A1085D2
:200E8000883A10C590BA1004087400C0430418CE883A10C5FB15E0BFF917E0FF00340090FB
:200E9000FFC410BF703A1886FB17E0BF021510C0FC17E0BF051E1000FB17E13FB9400211AD
:200EA000FD15E0BFFD17E0BF10161000FF17E0BF0317108008261000FF17E0BF031710809C
:200EB000F817E1FFF917E1BFFA17E17FFB17E13FE83A103E01060000883A0005FD15E0BFF1
:200EC00002060000FB4400BFFD15E0BFFD17E0BF090E1000FE17E13FDD000211B580021114
:200ED000883A1007FD17E0BFC83A008500151880FFC400BF01060000FE17E0BF883AE0372C
:200EE0000117DFC00017DF000204DEC0283AF800FE04DEFF0115DF000104DF00FF15E13F5B
:200EF000FF17E0BF00D01080101E1000FF17E0FF883A1805883A1085883A10C590BA10046F
:200F0000087400C0883A10C74515180EFF17E0FF883A1805883A1085883A10C590BA10045C
:200F1000087400C0883A10C74315180E883A0001883AE0370017DF000104DEC0283AF800DF
:200F2000FA04DEFF0515DF000504DF00FB15E13F303A0005FC15E0BFFC17E0FFFF8400BF72
:200F3000703A1884703A1001FC17E0BFFF15E0BFFB17E0BFFD15E0BFFD17E0BF001710807F
:200F4000FD17E0FF011718C0011510C0FD17E0BF01171080FD17E0FF001718C0001510C0A6
:200F5000FD17E0BFFD17E0FF011510C0FD17E0BFFD17E0FF001510C0883A0001FF17E0BFF2
:200F6000FE15E0BFFE17E0BF703A1001883A0001883A0001883AE0370017DF000104DEC058
:200F7000283AF800FB04DEFF0415DFC00315DF000304DF000717D0A0FF15E0BFDD17D0A5EC
:200F800000441080DD15D0A52E060000FF17E0BF00171080FE15E0BFFF17E0BF0403108088
:200F90003FCC108004261000DD17D0A5021E1000FF17E0BF04051000FF17E0BF02171080A7
:200FA000DD17D0E51D361880FF17E0BF040310803FCC1080191E1000FF17E0BF0317108010
:200FB000FF17E0FF051718C0883A1809E83A103EFD15E0BFFD17E0BF031E1000FF17E13F1A
:200FC000E40002110D060000FF17E0BF021710C0FD17E0BF883A1887FF17E0BF021510C0B9
:200FD000FF17E0BF021710C0DD17D0A5032E1880FF17E0BF004400C0040510C0FE17E0BFEB
:200FE000FF15E0BFFF17E0FF0704D0A0CF1E18BF883A0001883A0001883AE0370117DFC0F4
:200FF0000017DF000204DEC0283AF800FF04DEFF0015DF00883AD83970FA0001883A000118
:20100000883AE0370017DF000104DEC0283AF800FA04DEFF0515DFC00415DF000404DF0091
:20101000FD15E13FFC15E17FFC17E0BF00171080FF15E0BFFD17E13F4B800212004410802A
:20102000FE15E0BF0D060000FF17E0BF02171080FE17E0FF883A180DFD17E17F883A100963
:2010300034000212021E1000FF17E0BF07060000FF17E0BF00171080FF15E0BFFF17E0FF62
:20104000FC17E0BFF01E18BF883A0005883AE0370117DFC00017DF000204DEC0283AF800AE
:20105000FB04DEFF0415DFC00315DF000304DF00FD15E13F0017D0A0FF15E0BF310600006C
:20106000FF17E0BF02171080883A10094B800212FE15E0BFFF17E0BF021710C0FE17E0BF54
:20107000FFC410BF883A1885000310803FCC1080201C1080E00410BF0BD81080031E10001E
:20108000FE17E0BFFFC410BFFE15E0BFFE17E0BFFD17E0FF883A1885000310803FCC108024
:20109000201C1080E00410BF0BE01080081E1000FE17E0BFFD17E0FF883A18850003108077
:2010A0003FCC1080201C1080E00410BF0A1E1000FF17E0BF02171080FE17E0FF883A180DA5
:2010B000FD17E17F883A100934000212021E1000FF17E0BF07060000FF17E0BF001710803B
:2010C000FF15E0BFFF17E0FF0004D0A0CC1E18BF883A0005883AE0370117DFC00017DF00E6
:2010D0000204DEC0283AF800FC04DEFF0315DF000304DF00FD15E13FFA0400BFFE15E0BFA7
:2010E000FF15E03F1D060000FF17E0FF883A1805883A1085883A10C590BA1004087400C03E
:2010F000883A10C74317188E111E1000FF17E0FF883A1805883A1085883A10C590BA1004E8
:20110000FD17E13F087400C0883A10C74315190E0417D0E0FF17E0BF020E1880FF17E0BF6A
:201110000415D0A0FF17E0BFFE15E0BF07060000FF17E0BF00441080FF15E0BFFF17E0BFD1
:2011200008101080E01E103F883A0001FE17E0BF883AE0370017DF000104DEC0283AF80077
:20113000FE04DEFF0115DF000104DF00FF15E13FFF17E0BFFE8410BF042810C0191E180062
:2011400090BA100608740080883A1885A5171088683A100022D4002122D4002122E4002179
:2011500022E4002122E4002122D4002122DC002122E4002122D4002122D4002122E400217F
:2011600022D4002122DC002122E4002122E4002122D400210044008003060000883A000540
:2011700001060000883A0005883AE0370017DF000104DEC0283AF800883A200B883A000F07
:20118000883A000D883A000955010212FE04DEFF883A000B0015DC000115DFC0883A2021F6
:201190005E00021208740080B517110F0F17208001261000E83A103E883A800970000212A9
:2011A000013030800B1E1000B03A214400CC1080171E1000001720C000172880141E1880A5
:2011B000FF0431BF012830800104210001042940F81E103FFFC430BF0B2630000044118072
:2011C000883A218D010600000726218000032080000328C00044210000442940FA2610FFFB
:2011D000C83A10C5283AF800883A0005283AF800FFC430BFF106003F043030C0883A2005BA
:2011E0002D1E1800B03A290600CC18C0351E1800FC0432FFD13A5816883A280F883A2007D8
:2011F00000445AC0913A5816883A22D50117390000173A4002173A000115190003173900D8
:2012000000151A4002151A0003151900040418C0040439C0F51E50FF030C3100883A2ACBC3
:2012100003CC320022262000883A280F883A1813010439C0FF173ABFC83A41C9883A290962
:2012200000154A800128210001044A40F81E203FFF04413FD0BA200800CC3180FFC431FFDC
:201230000044210090BA2008883A1907883A290B041E3000283AF800883A2007FFC431FF67
:20124000FC26303F004439C0883A19CF00032980004418C000442940FFC519BFFB1E38FFB5
:20125000283AF800FFC431FF883A2007F506003F883A400DF106003F00CC2080092610001E
:20126000883A2005030600000044108000CC10C005261800000710C0FB1E183FC83A11056C
:20127000283AF800883A200500171140BFF401FFBFC439FF883A29C7207401A0303A014AAB
:20128000703A1946200431A0703A1986071E18000117114001041080883A29C7303A014A65
:20129000703A1946703A1986F926183F000710C0EA26183F004710C000441080E726183FE9
:2012A000004710C000441080FA1E183FE306003F08740080B51710CF5217188017261000B7
:2012B000011710C008081A001B1E40000B26200090BA181000440240983A48D2883A121179
:2012C000221541806217118000982100B03A324C62151180421541C00B262000008419009D
:2012D00090BA2008004418C0011510C0883A110500151140883A0005283AF800530418803C
:2012E00052151880E606003F63171100B03A225263151240F106003FFFC400BF283AF800FF
:2012F000F704DEFF087400800315DCC0B51714CF0215DC800815DFC052179C800715DDC03A
:201300000615DD800515DD400415DD000115DC400015DC0010269000883A202B883A282D1B
:201310000044050001179400FFC4847F0A1688000044840090BA8020883A94211126B0004A
:20132000401780800F261580FFC48C7FFFD888BFFF04843FF91E103F0817DFC00717DDC0FB
:201330000617DD800517DD400417DD000317DCC00217DC800117DC400017DC000904DEC0F5
:20134000283AF8000117908000178180FFC410BF1726144000158000EB26303F983AA446FF
:2013500062179080011795C0703A1884081E1000E83A303E011790C052179880011E1DC096
:20136000E12690BFE426103F883A1025D506003F6317908020178100703A1886061E1800E7
:20137000883A200B883AA809E83A303EF106003F01159440E806003FE83A303EED06003F5E
:20138000FD04DEFF0215DF000204DF00FE15E13F883A0001FE17E0BFFF15E0BFFF17E0BF82
:2013900002261000F070002A01060000F0B0002A883A0001FF06003F642F76656A2F6174C7
:2013A0005F67617574720000642F76656A2F61745F67617574720000642F7665702F78695F
:2013B0006C65625F6675656600720000642F7665722F6267725F73656D616C707265000071
:2013C000642F7665762F64696F65725F6267725F73656D616C707265305F0000642F766598
:2013D0006E2F6C75006C000000000000000000000000000000000000000000000000000013
:2013E0000000000000000000000000000000000000000000000000000000000000000000ED
:2013F0000000000000000000000000000000000000000000000000000000000000000000DD
:201400000000000000000000000000000000000000000000000000000000000000000000CC
:201410000000000000000000000000000000000000000000000000000000000000000000BC
:201F7000000000002748002100000000085800210798002107F80021000000000000000060
:201F800008A8002110600022000A00000000000000000000000000000000000000000000D4
:201F9000000000000000000000000000000000000000000000000000000000000000000031
:201FA000000000000000000000000000000000000000000000000000000000000000000021
:201FB000000000000000000000000000000000000000000000000000000000000000000011
:201FC000000000000000000000000000000000000000000000000000000000000000000001
:2027A000000000002758002100000000000000000000000000000000000000000000000079
:2027B0000000000010500022000000000000000000000000000200000140000000F0000054
:2027C0000001000001FF0000000A000000FF00000000000000000000276C0021000000003B
:2027D000000000000000000000000000000000000000000000000000106C0022000000004B
:2027E000000000000000000000000000000000000000000000000000000000002780002111
:2027F0000000000000000000000000000000000000000000000000000000000000040020A5
:202800000000000000000000000000000000000000000000000000003EB800213EB800218A
:20281000279C00210000000000000000000000001578002100000000000000000000000016
:2028200038E40021000000000000000038E40021000000000000000038E4002100000000E1
:20283000000000000000000000000000000000000000000000000000000000000000000088
:20284000000000000000000000000000000000000000000000000000000000000000000078
:20285000000000000000000000000000000000000000000000000000000000000000000068
:20286000000000000000000000000000000000000000000000000000000000000000000058
:20287000000000000000000000000000000000000000000000000000000000000000000048
:20288000000000000000000000000000000000000000000000000000000000000000000038
:20289000000000000000000000000000000000000000000000000000000000000000000028
:2028A000000000000000000000000000000000000000000000000000000000000000000018
:2028B000000000000000000000000000000000000000000000000000000000000000000008
:2028C0000000000000000000000000000000000000000000000000000000000000000000F8
:2028D0000000000000000000000000000000000000000000000000000000000000000000E8
:2028E000000000003D7800213DE000213E480021000000000000000000000000000000001D
:2028F0000000000000000000000000000000000000000000000000000000000000000000C8
:202900000000000000000000000000000000000000000000000000000000000000000000B7
:202910000000000000000000000000000000000000000000000000000000000000000000A7
:20292000000000000000000000000000000000000000000000000000000000000000000097
:20293000000000000001000000000000330EABCD1234E66DDEEC0005000B0000000000005A
:20294000000000000000000000000000000000000000000000000000000000000000000077
:20295000000000000000000000000000000000000000000000000000000000000000000067
:20296000000000000000000000000000000000000000000000000000000000000000000057
:20297000000000000000000000000000000000000000000000000000000000000000000047
:20298000000000000000000000000000000000000000000000000000000000000000000037
:20299000000000000000000000000000000000000000000000000000000000000000000027
:2029A000000000000000000000000000000000000000000000000000000000000000000017
:2029B000000000000000000000000000000000000000000000000000000000000000000007
:2029C0000000000000000000000000000000000000000000000000000000000000000000F7
:2029D0000000000000000000000000000000000000000000000000000000000000000000E7
:2029E0000000000000000000000000000000000000000000000000000000000000000000D7
:2029F0000000000000000000000000000000000000000000000000000000000000000000C7
:202A00000000000000000000000000000000000000000000000000000000000000000000B6
:202A10000000000000000000000000000000000000000000000000000000000000000000A6
:202A2000000000000000000000000000000000000000000000000000000000000000000096
:202A3000000000000000000000000000000000000000000000000000000000000000000086
:202A4000000000000000000000000000000000000000000000000000000000000000000076
:202A5000000000000000000000000000000000000000000000000000000000000000000066
:202A6000000000000000000000000000000000000000000000000000000000000000000056
:202A7000000000000000000000000000000000000000000000000000000000000000000046
:202A8000000000000000000000000000000000000000000000000000000000000000000036
:202A9000000000000000000000000000000000000000000000000000000000000000000026
:202AA000000000000000000000000000000000000000000000000000000000000000000016
:202AB000000000000000000000000000000000000000000000000000000000000000000006
:202AC0000000000000000000000000000000000000000000000000000000000000000000F6
:202AD0000000000000000000000000000000000000000000000000000000000000000000E6
:202AE0000000000000000000000000000000000000000000000000000000000000000000D6
:202AF000000000003EB000213EB0002138E4002138E40021FFFFFFFF00000000FFFFFFFF36
:202B00003ECC00213ECC00213A8C00213A8C00210000000000000000000000000000000091
:202B10000000000000000000000000000000000000000000000000000000000000000000A5
:202B2000000000000000000000000000000000000000000000000000000000000000000095
:202B3000000000000000000000000000000000000000000000000000000000000000000085
:202B4000000000000000000000000000000000000000000000000000000000000000000075
:00000001FF
